:020000040800F2
:1000000000000120C5020008CB020008CF02000852
:1000100041030008450300088D03000800000000AC
:10002000000000000000000000000000D5030008F0
:10003000D903000800000000DD030008FD110008DE
:10004000F1030008F1030008F1030008F1030008C0
:10005000F1030008F1030008F1030008F1030008B0
:10006000F1030008F1030008F1030008F1030008A0
:10007000F1030008F1030008F1030008F103000890
:10008000F1030008F1030008F1030008000000007C
:10009000000000000000000000000000F103000864
:1000A000F1030008F1030008F1030008F103000860
:1000B000F1030008F1030008F1030008F103000850
:1000C000F1030008F1030008F1030008F103000840
:1000D000F1030008F1030008F1030008000000002C
:1000E000F1030008F1030008F1030008000000001C
:1000F000000000000000000000000000F103000804
:1001000000000000F1030008F1030008F1030008FB
:1001100000000000000000000000000000000000DF
:10012000F1030008F1030008F1030008F1030008DF
:10013000F1030008000000000000000000000000C3
:10014000000000000000000000000000F1030008B3
:10015000F1030008F1030008F1030008F1030008AF
:10016000F1030008F1030008000000000000000097
:10017000000000000000000000000000000000007F
:1001800000000000F1030008000000000000000073
:10019000F103000800B583B000F0BAF9384B394AD2
:1001A0001360394A1360394900E02146384B9942BF
:1001B0000BD20A684B6801F10C0488689842F4D9A4
:1001C0001168196004330432F8E72E4B1A68314B7A
:1001D0009A4200D0FEE72C4B1A682F4B9A42F9D175
:1001E000274B2E4A13602E4A13602E4B05E0002049
:1001F000106004329342FAD80B462B4A934204D241
:10020000194651F8082B5B68F4E7244B1B6813B9B7
:10021000234B1B6803B1FEE700F086F9694601A88D
:1002200000F022F9214C224BE41AA4100025AC4224
:1002300014DC204C204BE41AA4100025AC4213DC43
:100240000099019801F056F805461C4C1C4BE41A25
:10025000A410002C0EDC284600F0E2F8144B53F8F2
:10026000253098470135E2E7134B53F8253098477E
:100270000135E3E7013C124B53F824309847E8E797
:10028000BABADECA00000020B8000020F40300085B
:100290000C0400087856341232547698C0000020BE
:1002A000640100200C0400081C0400081C04000861
:1002B0001C0400081C0400081C0400081C0400089E
:1002C0001C04000808B5FFF765FF00BEFEE71EF03E
:1002D000040F0CBFEFF30880EFF309807146414A29
:1002E00010472DE9F04182B004468846124B5E6B00
:1002F0009F6B9D6A1B6B13F0020F03D00E4BDB6AE2
:10030000002B0CDB0D4800F0B7F8CDF800803B4621
:1003100032462946204600F00BF900BEFEE74BF6B8
:10032000AB6100F07FF90028ECD0034B4FF00042A6
:10033000DA6202B0BDE8F08100ED00E0442300087D
:1003400000BEFEE71EF0040F0CBFEFF30880EFF3D2
:1003500009807146244A10472DE9F04182B00446D5
:100360008846084B5E6B9F6B9D6A074800F084F8D7
:10037000CDF800803B4632462946204600F0D8F8AA
:1003800000BEFEE700ED00E0542300081EF0040F5D
:100390000CBFEFF30880EFF309807146134A104752
:1003A0002DE9F04182B004468846084B5E6B9F6B96
:1003B0009D6A074800F060F8CDF800803B46324661
:1003C0002946204600F0B4F800BEFEE700ED00E04C
:1003D0006023000800BEFEE700BEFEE700BEFEE7A9
:1003E00070470000E302000859030008A103000859
:0403F00000BEFEE766
:1003F400B423000800000020BC000020B42300083F
:100404000000001000000010C0000020680100205F
:080414000000001000000010C0
:10042000FEE7000008B503460C4A12685AB10B4AB1
:100430001068033323F003030344094A934206D8A8
:10044000064A136008BD054A06491160EFE701F04E
:1004500073FA0C2303604FF0FF30F3E7C400002071
:1004600000FC00206801002001230360014B0B60A9
:10047000704700BF040000200FB400B583B004AB88
:1004800053F8042B01938021064801F087FA0028D5
:1004900003DD0146034800F037F803B05DF804EBD4
:1004A00004B07047CC0000202DE9F04385B004462D
:1004B0000F4643560BB10E461EE004252846214642
:1004C000ABBE0446384605B0BDE8F08314F9011B05
:1004D00004AA1A4402F8101C0133AB42F6D304AA52
:1004E0001344002203F8102C4FF00408E94640465C
:1004F0004946ABBE8046761B002EE3D03546102E13
:1005000028BF10250023E8E708B5FFF7CDFF08BD99
:1005100008B500F097F8024A024B9A6008BD00BF88
:100520000000000800ED00E008B500F0ABF808BDE1
:10053000F8B504460D4617461E462748FFF79CFFB0
:1005400021682648FFF798FF61682548FFF794FF68
:10055000A1682448FFF790FFE1682348FFF78CFF6C
:1005600021692248FFF788FF61692148FFF784FF6E
:10057000A1692048FFF780FFE1691F48FFF77CFF72
:100580001E48FFF779FF29461D48FFF775FF1D4CF0
:10059000E16A1D48FFF770FF216B1C48FFF76CFFF5
:1005A000E16B1B48FFF768FF15F0800F0AD115F4C7
:1005B000004F0CD11748FFF75FFF06991648FFF769
:1005C0005BFFF8BD39461548FFF756FFEFE73146A8
:1005D0001348FFF751FFEDE72822000838220008F2
:1005E00048220008582200086822000878220008E3
:1005F0008822000898220008A8220008B8220008D3
:10060000C422000800ED00E0D4220008E422000823
:10061000F4220008242300082C23000804230008E7
:100620001423000883691A888A4201D00020704789
:100630000268033A012A03D802338361012070471C
:10064000002070470C4B1A6842F001021A6000212A
:1006500099601A6822F0847222F480321A60074A84
:100660005A601A6822F480221A60D960044B4FF055
:1006700000629A60704700BF0038024010300024CA
:1006800000ED00E0224B9B6803F00C03042B14D018
:10069000082B16D01BB11F4B1F4A1A6002E01D4BDE
:1006A0001D4A1A601A4B9B68C3F303131B4AD15CA3
:1006B000184A1368CB4013607047164B184A1A60EB
:1006C000F0E7134B5A685B6803F03F0312F4800FA6
:1006D00013D0134AB2FBF3F20D4B5B68C3F38813DC
:1006E00003FB02F30A4A5268C2F30142013252008C
:1006F000B3FBF2F3074A1360D4E7074AB2FBF3F205
:10070000034B5B68C3F3881303FB02F3EAE700BF04
:10071000003802400C0000200024F4007023000880
:1007200040787D01FEE700000023042B00F21E82CA
:1007300030B482B022E0944A11689DF80100440070
:100740000320A04021EA0001116011689DF8020019
:100750009DF801406400A040014311609DF8022013
:10076000012A00F09880002A00F08380022A00F01D
:10077000B0800133DBB2042B00F2F581C3EBC3017F
:10078000824A0A441068009091889279ADF804106A
:100790008DF80620C0B2012800F0FC800028CAD0E5
:1007A0000228E6D17A4A11689DF80100440003202E
:1007B000A04021EA0001116011689DF802009DF837
:1007C00001406400A040014311609DF80220012A0D
:1007D00000F09981002A00F08481022AC9D19DF895
:1007E0000520FF2A0DD06A49CC689DF80100400021
:1007F0000325854024EA0504CC60CC68824022436E
:10080000CA609DF80320FF2A0CD0614948689DF812
:1008100001500124AC4020EA040048604868AA4026
:1008200002434A609DF80420FF2A0DD058498C6885
:100830009DF8010040000325854024EA05048C60F2
:100840008C68824022438A609DF80120072A00F2CA
:1008500078814F49086A92000F24944020EA0400EE
:100860000862086A9DF8064004FA02F202430A622E
:100870007FE7454AD0689DF80110490003248C4069
:1008800020EA0400D060D0689DF8054004FA01F128
:100890000143D1606DE73C4A50689DF80110012486
:1008A0008C4020EA0400506050689DF803408C4062
:1008B000204350609068490003248C4020EA0400E3
:1008C000906090689DF8044004FA01F10143916042
:1008D0004FE79DF80520FF2A0DD02B49CC689DF8E5
:1008E000010040000325854024EA0504CC60CC6863
:1008F00082402243CA609DF80320FF2A0CD022497F
:1009000048689DF801500124AC4020EA040048608A
:100910004868AA4002434A609DF80420FF2A0DD08F
:1009200019498C689DF8010040000325854024EAA0
:1009300005048C608C68824022438A609DF8012007
:10094000072A0FD81049086A92000F24944020EA21
:1009500004000862086A9DF8064004FA02F20243A5
:100960000A6206E7083AD2B20749486A92000F24A1
:10097000944020EA04004862486A9DF8064004FA60
:1009800002F202434A62F4E6000002401000002036
:1009900000080240764A11689DF8010044000320D7
:1009A000A04021EA0001116011689DF802009DF845
:1009B00001406400A040014311609DF80220012A1B
:1009C0005FD0002A4BD0022A7FF4D3AE9DF80520D9
:1009D000FF2A0DD06649CC689DF801004000032530
:1009E000854024EA0504CC60CC6882402243CA607A
:1009F0009DF80320FF2A0CD05D4948689DF80150FE
:100A00000124AC4020EA040048604868AA40024340
:100A10004A609DF80420FF2A0DD055498C689DF846
:100A2000010040000325854024EA05048C608C68A1
:100A3000824022438A609DF80120072A3FD84C4912
:100A4000086A92000F24944020EA04000862086AB1
:100A50009DF8064004FA02F202430A6289E6444A1B
:100A6000D0689DF80110490003248C4020EA04005E
:100A7000D060D0689DF8054004FA01F10143D160CF
:100A800077E63B4A50689DF8011001248C4020EA2B
:100A90000400506050689DF803408C402043506033
:100AA0009068490003248C4020EA0400906090681C
:100AB0009DF8044004FA01F10143916059E6083AB7
:100AC000D2B22B49486A92000F24944020EA0400D5
:100AD0004862486A9DF8064004FA02F202434A62FC
:100AE00047E6244AD0689DF80110490003248C4051
:100AF00020EA0400D060D0689DF8054004FA01F1B6
:100B00000143D16035E61B4A50689DF8011001246D
:100B10008C4020EA0400506050689DF803408C40EF
:100B2000204350609068490003248C4020EA040070
:100B3000906090689DF8044004FA01F101439160CF
:100B400017E6083AD2B20B49486A92000F24944043
:100B500020EA04004862486A9DF8064004FA02F25E
:100B600002434A6205E602B030BC7047704700BFDE
:100B7000000402400008024001280BD018B10228EE
:100B800011D00020704701EB41010A48B0FBF1F0A1
:100B90000130704701EB810000EB80010548B0FB9C
:100BA000F1F00130704749000248B0FBF1F001302C
:100BB000704700BFFF23F40030B49DF80840C2F333
:100BC0000902012827D018B1022847D030BC70474D
:100BD000344DA86820F47F7020F00300A860A86856
:100BE00061F3CF30A86059B101290FD02D4AD168E7
:100BF00063F30001D160D36864F34703D360E5E792
:100C00002848816841EA42028260EFE7254881680E
:100C10000A438260EAE7244DA86820F47F7020F040
:100C20000300A860A86861F3CF30A86059B101291A
:100C30000FD01D4AD16863F30001D160D36864F31B
:100C40004703D360C2E71848816841EA42028260E4
:100C5000EFE7154881680A438260EAE7134DA86808
:100C600020F47F7020F00300A860A86861F3CF3003
:100C7000A86059B101290FD00C4AD16863F3000173
:100C8000D160D36864F34703D3609FE70748816866
:100C900041EA42028260EFE7044881680A438260C9
:100CA000EAE700BF0054004000580040005C0040EC
:100CB00030B587B0002450E0A94B1A686FF30002EA
:100CC0001A601A6842F400421A601A686FF3CF3251
:100CD0001A601A686FF3C7121A601A686FF341023C
:100CE0001A605A68102161F305025A60049D9D4BF9
:100CF0009D4200F294801121994B1A6A61F305021A
:100D00001A629DF80B20D96962F3CF31D961002AAC
:100D100040F08780934B9D4200D9049304990220B0
:100D2000FFF72AFF032800D804208D4BDA6960F30F
:100D30000B02DA619DF80A30BDF814209DF8091005
:100D40009DF8160000900020FFF736FF844A1368D4
:100D500043F0010313600134E4B2012C00F2FE8081
:100D6000814B03EB04130FCB06AD05E90F009DF893
:100D70000830012B6ED0002B9ED0022BEBD17B4B89
:100D80001A686FF300021A601A6842F400421A608F
:100D90001A686FF3CF321A601A686FF3C7121A60BD
:100DA0001A686FF341021A605A68102161F3050254
:100DB0005A60049D6B4B9D4200F2B48011216B4B35
:100DC0001A6A61F305021A629DF80B20D96962F371
:100DD000CF31D961002A40F0A780624B9D4200D9F3
:100DE000049304990220FFF7C7FE032800D80420CB
:100DF0005E4BDA6960F30B02DA619DF80A30BDF8E8
:100E000014209DF809109DF8160000900220FFF7AD
:100E1000D3FE564A136843F0010313609BE7052194
:100E20006AE7012A86D19DF80C004D4BDA6960F320
:100E30008E32DA614E4B9D4200D904930499FFF73C
:100E40009BFE014600B90121454BDA6961F30B02B3
:100E5000DA616FE7474B1A686FF300021A601A688D
:100E600042F400421A601A686FF3CF321A601A68AF
:100E70006FF3C7121A601A686FF341021A605A685A
:100E8000102161F305025A60049D364B9D422ED815
:100E90001121384B1A6A61F305021A629DF80B2082
:100EA000D96962F3CF31D9611ABB2E4B9D4200D96B
:100EB000049304990220FFF75FFE032800D8042062
:100EC0002C4BDA6960F30B02DA619DF80A30BDF849
:100ED00014209DF809109DF8160000900120FFF7DE
:100EE0006BFE244A136843F00103136033E70521C6
:100EF000CFE7012AE9D19DF80C001E4BDA6960F3B7
:100F00008E32DA611A4B9D4200D904930499FFF79F
:100F100033FE014600B90121164BDA6961F30B0279
:100F2000DA61D2E705214AE7012A7FF466AF9DF82E
:100F30000C000E4BDA6960F38E32DA610C4B9D4285
:100F400000D904930499FFF717FE014600B9012167
:100F5000064BDA6961F30B02DA614EE707B030BD88
:100F600000540040A086010034000020005C0040D6
:100F7000801A06000058004030B482B0002301936C
:100F8000012851D028B1022800F0998002B030BC6D
:100F90007047704B1B6813F0010F04D16D48036854
:100FA00043F0010303606B4B18686FF3CB201860AC
:100FB000186840F480601860664B5B6913F0020F9C
:100FC000FAD0644B586901909B690193002401E0B9
:100FD00004461A46CAB15F4B5B6913F0400FFAD062
:100FE0005C4D2B690B55601CC0B2531EDBB26D69A2
:100FF00015F0040FECD0002BEAD0564B1B690B54B4
:10100000A01CC0B2023AD3B2E2E7524B5B6913F0C4
:10101000100FFAD04F4B1A686FF300021A601A686B
:101020006FF38A221A60B1E74B4B1B6813F0010F74
:1010300004D14948036843F001030360464B186834
:101040006FF3CB201860186840F480601860424B42
:101050005B6913F0020FFAD03F4B586901909B690E
:101060000193002401E004461A46CAB13A4B5B6979
:1010700013F0400FFAD0384D2B690B55601CC0B2ED
:10108000531EDBB26D6915F0040FECD0002BEAD0D3
:10109000314B1B690B54A01CC0B2023AD3B2E2E739
:1010A0002D4B5B6913F0100FFAD02B4B1A686FF3BE
:1010B00000021A601A686FF38A221A6066E7274BEB
:1010C0001B6813F0010F04D12448036843F00103A7
:1010D0000360224B18686FF3CB201860186840F447
:1010E000806018601D4B5B6913F0020FFAD01B4B38
:1010F000586901909B690193002401E004461A4657
:10110000CAB1164B5B6913F0400FFAD0134D2B692F
:101110000B55601CC0B2531EDBB26D6915F0040F95
:10112000ECD0002BEAD00D4B1B690B54A01CC0B2B5
:10113000023AD3B2E2E7094B5B6913F0100FFAD021
:10114000064B1A686FF300021A601A686FF38A225E
:101150001A601BE70054004000580040005C00404B
:1011600009490B6823F0A16323F4A02343F0010392
:101170000B608A6822F47C4222F0F3028A6013F04A
:10118000020FFCD0704700BF0038024008B5830949
:10119000032B2BD8DFE803F0020C162000F03F00F1
:1011A000012303FA00F0144A136B0343136308BDD1
:1011B00000F03F00012303FA00F00F4A536B034392
:1011C0005363F4E700F03F00012303FA00F00A4AFA
:1011D000136C03431364EAE700F03F00012303FAB2
:1011E00000F0054A536C03435364E0E701221146C3
:1011F0000020FFF797FADAE70038024008B5024B03
:101200001B68984708BD00BF6001002010B582B080
:10121000002301930023ADF802308DF80130284BF4
:101220000193019800F068FB80B2ADF80200BDF8B0
:101230000200019C00F046F90146204600F08CF8BF
:10124000019001984FF0834100F090F90190019CCA
:10125000019800F051FB00F031F90146204600F002
:101260007BF8184900F082F9174900F031FB28B1EA
:1012700001984FF07E5100F071F80190019800F054
:101280003BFBC0B28DF80100BDF802100F4B9A680D
:1012900061F30F129A609DF801109A6861F30302DE
:1012A0009A60DA6842F00802DA60DA6842F0040212
:1012B000DA60DA6842F40052DA6002B010BD00BFB2
:1012C0005555D042000020410000A04000100140D0
:1012D000074B1B6813F0400FFAD0054B1A686FF3E9
:1012E00086121A605A6860F308025A60704700BF9D
:1012F0000010014000B583B0FFF732FF0020FFF778
:1013000045FF0120FFF742FFC820FFF73FFF952070
:10131000FFF73CFFC420FFF739FFFFF705FAFFF79F
:10132000C7FCFFF773FF002002A921F8040D022279
:10133000FFF722FE9DF804003030C0B2FFF7C8FF6F
:101340009DF805003030C0B2FFF7C2FFFEE7000095
:1013500080F0004002E000BF81F0004142001FBF6A
:101360005FEA410392EA030F7FEA226C7FEA236C73
:101370006AD04FEA1262D2EB1363C1BFD218414068
:1013800048404140B8BF5B42192B88BF704710F0FE
:10139000004F40F4000020F07F4018BF404211F0A1
:1013A000004F41F4000121F07F4118BF494292EA09
:1013B000030F3FD0A2F1010241FA03FC10EB0C0035
:1013C000C3F1200301FA03F100F0004302D54942C2
:1013D00060EB4000B0F5000F13D3B0F1807F06D36F
:1013E00040084FEA310102F10102FE2A51D2B1F167
:1013F000004F40EBC25008BF20F0010040EA03005C
:101400007047490040EB000010F4000FA2F1010208
:10141000EDD1B0FA80FCACF1080CB2EB0C0200FA92
:101420000CF0AABF00EBC25052421843BCBFD040E0
:101430001843704792F0000F81F4000106BF80F45A
:1014400000000132013BB5E74FEA41037FEA226C1D
:1014500018BF7FEA236C21D092EA030F04D092F0E8
:10146000000F08BF0846704790EA010F1CBF00201C
:10147000704712F07F4F04D1400028BF40F0004079
:10148000704712F100723CBF00F50000704700F099
:10149000004343F0FE4040F4000070477FEA2262C0
:1014A00016BF08467FEA23630146420206BF5FEA91
:1014B000412390EA010F40F4800070474FF0000391
:1014C00004E000BF10F0004348BF40425FEA000C58
:1014D00008BF704743F0964301464FF000001CE000
:1014E00050EA010208BF70474FF000030AE000BF56
:1014F00050EA010208BF704711F0004302D5404294
:1015000061EB41015FEA010C02BF84460146002005
:1015100043F0B64308BFA3F18053A3F50003BCFA20
:101520008CF2083AA3EBC25310DB01FA02FC6344CD
:1015300000FA02FCC2F12002BCF1004F20FA02F2D4
:1015400043EB020008BF20F00100704702F12002C7
:1015500001FA02FCC2F1200250EA4C0021FA02F228
:1015600043EB020008BF20EADC7070474FF0FF0C2D
:101570001CEAD0521EBF1CEAD15392EA0C0F93EA28
:101580000C0F6FD01A4480EA010C400218BF5FEACA
:1015900041211ED04FF0006343EA501043EA51113D
:1015A000A0FB01310CF00040B1F5000F3EBF490037
:1015B00041EAD3715B0040EA010062F17F02FD2A3B
:1015C0001DD8B3F1004F40EBC25008BF20F001001E
:1015D000704790F0000F0CF0004C08BF49024CEA35
:1015E000502040EA51207F3AC2BFD2F1FF0340EAC7
:1015F000C250704740F400004FF00003013A5DDC38
:1016000012F1190FDCBF00F000407047C2F1000278
:10161000410021FA02F1C2F1200200FA02FC5FEA65
:10162000310040F1000053EA4C0308BF20EADC70AF
:10163000704792F0000F00F0004C02BF400010F421
:10164000000F013AF9D040EA0C0093F0000F01F0CE
:10165000004C02BF490011F4000F013BF9D041EAF0
:101660000C018FE70CEAD15392EA0C0F18BF93EAF2
:101670000C0F0AD030F0004C18BF31F0004CD8D11C
:1016800080EA010000F00040704790F0000F17BFA3
:1016900090F0004F084691F0000F91F0004F14D0E9
:1016A00092EA0C0F01D142020FD193EA0C0F03D141
:1016B0004B0218BF084608D180EA010000F0004044
:1016C00040F0FE4040F40000704740F0FE4040F41F
:1016D000400070474FF0FF0C1CEAD0521EBF1CEABE
:1016E000D15392EA0C0F93EA0C0F69D0A2EB0302DC
:1016F00080EA010C49024FEA402037D04FF0805376
:1017000043EA111143EA10130CF000408B4238BF3A
:101710005B0042F17D024FF4000C8B4224BF5B1A48
:1017200040EA0C00B3EB510F24BFA3EB510340EA96
:101730005C00B3EB910F24BFA3EB910340EA9C0044
:10174000B3EBD10F24BFA3EBD10340EADC001B01B4
:1017500018BF5FEA1C1CE0D1FD2A3FF650AF8B4258
:1017600040EBC25008BF20F0010070470CF0004C65
:101770004CEA50207F32C2BFD2F1FF0340EAC25090
:10178000704740F400004FF00003013A37E792F051
:10179000000F00F0004C02BF400010F4000F013AAF
:1017A000F9D040EA0C0093F0000F01F0004C02BFAA
:1017B000490011F4000F013BF9D041EA0C0195E713
:1017C0000CEAD15392EA0C0F08D142027FF47DAFAC
:1017D00093EA0C0F7FF470AF084676E793EA0C0F9C
:1017E00004D14B023FF44CAF08466EE730F0004C9A
:1017F00018BF31F0004CCAD130F000427FF45CAF2A
:1018000031F000437FF43CAF5FE700BF4FF0FF3C97
:1018100006E000BF4FF0010C02E000BF4FF0010CEA
:101820004DF804CD4FEA40024FEA41037FEA226CB3
:1018300018BF7FEA236C11D001B052EA530C18BFD5
:1018400090EA010F58BFB2EB030088BFC81738BF3A
:101850006FEAE17018BF40F0010070477FEA226C28
:1018600002D15FEA402C05D17FEA236CE4D15FEA24
:10187000412CE1D05DF8040B704700BF8446084658
:101880006146FFE70FB5FFF7C9FF002848BF10F119
:10189000000F0FBD4DF808EDFFF7F4FF0CBF01205E
:1018A00000205DF808FB00BF4DF808EDFFF7EAFFE8
:1018B00034BF012000205DF808FB00BF4DF808EDA3
:1018C000FFF7E0FF94BF012000205DF808FB00BF98
:1018D0004DF808EDFFF7D2FF94BF012000205DF81E
:1018E00008FB00BF4DF808EDFFF7C8FF34BF01202B
:1018F00000205DF808FB00BF42000ED2B2F1FE4F9F
:101900000BD34FF09E03B3EB126209D44FEA0023CE
:1019100043F0004323FA02F070474FF00000704795
:1019200012F1610F01D1420202D14FF0FF30704736
:101930004FF00000704700BF014B1868704700BFB0
:101940005400002030B5141E05469BB0184605DA39
:101950008B232B604FF0FF301BB030BD4FF4027370
:10196000ADF80C3014BF04F1FF3323460293059306
:101970004FF6FF7300910491ADF80E3002461E9BA6
:101980006946284600F072F8431CBCBF8B232B60CD
:10199000002CE1D0009B00221A70DDE707B5009310
:1019A00013460A46014603480068FFF7CBFF03B021
:1019B0005DF804FB540000202DE9F0478E689E423C
:1019C00082460C469046994637D88A8912F4906F21
:1019D00031D0256809696F1A6569022305EB450551
:1019E00095FBF3F509F101033B449D4238BF1D46C9
:1019F000530530D5294600F07DFB064650B90C232F
:101A0000CAF80030A38943F04003A3814FF0FF30B0
:101A1000BDE8F0873A46216900F0FAFAA38923F479
:101A2000906343F08003A381266165613E44ED1B12
:101A30002660A5604E464E4500D94E463246414688
:101A4000206800F0F0FAA3689B1BA36023681E4483
:101A500026600020DCE72A4600F0A6FB06460028A8
:101A6000E2D12169504600F0F7FAC8E72DE9F04FBE
:101A70009DB0804603938B891D060C4616460FD5F4
:101A80000B696BB9402100F035FB2060206128B95B
:101A90000C23C8F800304FF0FF30C7E040236361EB
:101AA0000023099320238DF8293030238DF82A3024
:101AB0004FF0010B37463D4615F8013B0BB1252B86
:101AC0003ED1B7EB060A0BD053463246214640467C
:101AD000FFF772FF013000F0A480099B5344099383
:101AE0003B78002B00F09D8000234FF0FF32CDE9C2
:101AF0000523049307938DF853301A932F4605223C
:101B000017F8011B4F4800F033FA049BD0B9D906EF
:101B100044BF20228DF853201A0744BF2B228DF892
:101B200053202A782A2A15D0079A2F4600200A2502
:101B3000394611F8013B303B092B4DD9B8B10FE0C4
:101B40002F46B8E73F4A801A0BFA00F0184304907A
:101B50003D46D3E7039A111D12680391002A01DB69
:101B6000079204E0524243F00203079204933B7849
:101B70002E2B0CD17B782A2B33D1039B1A1D1B688B
:101B80000392002BB8BF4FF0FF33023705932E4D61
:101B900039780322284600F0EBF938B14023401B86
:101BA00003FA00F0049B0343013704933978274874
:101BB0008DF8281006227E1C00F0DAF9002838D0B3
:101BC000234B13BB039B073323F007030833039313
:101BD000099B4B4409936DE705FB023201200F4638
:101BE000A6E700230137059319460A25384610F861
:101BF000012B303A092A03D9002BC8D00591C6E73A
:101C000005FB012101230746F0E703AB00932246C1
:101C1000104B04A94046AFF30080B0F1FF3F81466E
:101C2000D6D1A3895B063FF536AF09981DB0BDE854
:101C3000F08F03AB00932246064B04A9404600F008
:101C400081F8EAE780230008862300088A23000839
:101C500000000000B91900082DE9F04791461F4621
:101C60008A680B69DDF820809342B8BF1346C9F833
:101C7000003091F8432006460C4612B10133C9F8F2
:101C800000302368990642BFD9F800300233C9F802
:101C90000030256815F0060507D104F1190AE3683C
:101CA000D9F800209B1AAB4228DC94F84330226814
:101CB000003318BF012392062DD404F143023946A4
:101CC0003046C047013020D02368E568D9F80020AD
:101CD00003F00603042B08BFAD1AA36822690CBFEA
:101CE00025EAE57500259342C4BF9B1AED184FF015
:101CF00000091A344D451AD1002008E0012352464C
:101D000039463046C047013003D14FF0FF30BDE8BF
:101D1000F0870135C3E7E1185A1C302081F84300F1
:101D2000224494F8451082F843100233C5E701239A
:101D3000224639463046C0470130E6D009F1010954
:101D4000D8E700002DE9F04301F1430C0C46097E71
:101D500085B06E291746064698460C9A00F0B38067
:101D600022D8632936D00AD8002900F0B980582932
:101D700000F0838004F1420584F8421032E06429C7
:101D800001D06929F6D120681368050603F1040122
:101D90002AD51B681160002B03DA2D225B4284F8E0
:101DA00043206F480A2239E0732900F09D8008D84B
:101DB0006F2920D07029DDD1236843F020032360F0
:101DC00003E0752917D07829D4D1782384F84530D9
:101DD000644855E01368191D1B68116004F1420541
:101DE00084F8423001238CE01B68116010F0400F32
:101DF00018BF1BB2CFE713682568181D10602806AE
:101E000001D51B6802E06806FBD51B8854486F2982
:101E100014BF0A220822002184F843106568A560D7
:101E2000002DC0F29580216821F004012160002B73
:101E30003DD1002D40F08E806546082A0BD12368E5
:101E4000DB0708D5236962689A42DEBF302305F8B4
:101E5000013C05F1FF35ACEB05032361CDF80080B3
:101E60003B4603AA21463046FFF7F6FE01304DD12E
:101E70004FF0FF3005B0BDE8F083394884F84510D5
:101E8000136821681D1D1B6815600A060BD5CA075B
:101E900044BF41F0200121601BB9226822F02002DA
:101EA00022601022B7E74D0648BF9BB2EFE76546B8
:101EB000B3FBF2F102FB1133C35C05F8013D0B46A5
:101EC0000029F5D1B9E7136825686169181D10600C
:101ED00028061B6801D5196002E06A06FBD5198047
:101EE000002323616546B9E71368191D11601D6859
:101EF00062680021284600F03BF808B1401B606092
:101F000063682361002384F84330A7E723692A46E6
:101F100039463046C0470130AAD023689B0713D406
:101F2000E068039B9842B8BF1846A3E701234A46DE
:101F300039463046C04701309AD00135E368039AEC
:101F40009B1AAB42F2DCEBE7002504F11909F5E737
:101F5000002BACD1037884F8423004F142056CE7E1
:101F600091230008A22300080000000000000000E8
:101F700001F0FF01102A2BDB10F0070F08D010F83A
:101F8000013B013A8B422DD010F0070F42B3F6D13E
:101F9000F0B441EA012141EA014122F007047FF057
:101FA00000070023F0E80256083C85EA010586EAAE
:101FB000010685FA47F5A3FA87F586FA47F6A5FAEA
:101FC00087F68EB9EED1F0BC01F0FF0102F00702F6
:101FD00032B110F8013B013A83EA010313B1F8D1A1
:101FE0000020704701387047002D06BF3546033882
:101FF000073815F0010F07D1013015F4807F02BFBB
:10200000013015F4C03F0130F0BC0138704700BF0B
:1020100010B5431E0A44914200D110BD11F8014B86
:1020200003F8014FF7E7884210B501EB020307D828
:10203000421E99420AD011F8014B02F8014FF8E70D
:102040008342F5D98118D21AD34200D110BD13F8BA
:10205000014D01F8014DF7E738B50546002945D097
:1020600051F8043C0C1F002BB8BFE41800F0D2F864
:102070001F4A1368104633B9636014602846BDE8F0
:10208000384000F0C8B8A3420CD9216862189342C6
:1020900004BF1A685B68636004BF52182260046062
:1020A000ECE713465A680AB1A242FAD919685818DF
:1020B000A0420BD120680144581882421960DDD13A
:1020C000106852685A6001441960D7E702D90C239E
:1020D0002B60D3E7206821188A4204BF1168526838
:1020E000626004BF091821605C60C7E738BD00BFAB
:1020F0004C01002070B5CD1C25F0030508350C2DD2
:1021000038BF0C25002D064601DBA94203D90C235C
:102110003360002070BD00F07DF8214A146821462C
:1021200091B9204C23681BB9304600F063F8206059
:102130002946304600F05EF8431C24D10C2333605E
:10214000304600F068F8E4E70B685B1B18D40B2BF3
:102150000FD90B60CD50CC18304600F05CF804F17C
:102160000B00231D20F00700C31AD3D05A42E250BF
:10217000D0E78C424B6816BF636013600C46EBE7F8
:102180000C464968CCE7C41C24F00304A04205D0E7
:10219000211A304600F02EF80130CFD02560DBE761
:1021A0004C01002050010020F8B5074614460E46A9
:1021B00021B91146BDE8F840FFF79CBF22B9FFF7EF
:1021C0004BFF25462846F8BD00F026F8A0420FD266
:1021D00021463846FFF78EFF05460028F2D03146EB
:1021E0002246FFF715FF31463846FFF735FFE9E78E
:1021F0003546E7E738B5064C002305460846236018
:10220000FEF710F9431C02D1236803B12B6038BDDF
:10221000540100207047704751F8043C181F002BF0
:10222000BCBF0B58C0187047537461636B20667253
:10223000616D653A0A000000205230203D202025C3
:102240003038580A00000000205231203D2020255F
:102250003038580A00000000205232203D2020254E
:102260003038580A00000000205233203D2020253D
:102270003038580A0000000020523132203D20251D
:102280003038580A00000000204C52203D20202504
:102290003038580A00000000205043203D202025FF
:1022A0003038580A0000000020505352203D2025AD
:1022B0003038580A000000004653522F4641523A27
:1022C0000A0000002043465352203D20202530388C
:1022D000580A00002048465352203D20202530381F
:1022E000580A00002044465352203D202025303813
:1022F000580A00002041465352203D202025303806
:10230000580A0000204D4D464152203D20253038CE
:10231000580A00002042464152203D2020253038F6
:10232000580A00004D6973630A000000204C522FC8
:102330004558435F52455455524E3D20253038583C
:102340000A0000005B486172644661756C745D0A46
:10235000000000005B4275734661756C745D0A0095
:102360005B55736167654661756C745D0A000000BA
:102370000000000000000000010203040607080935
:10238000232D302B2000686C4C006566674546475E
:1023900000303132333435363738394142434445E1
:1023A0004600303132333435363738396162636450
:0323B0006566005F
:1023B40078563412C8000020000000000024F40005
:1023C400010001000000FF010602010301040107EE
:1023D400020103010400090200000007000A0200D0
:1023E400000007FF0000000002000000A0860100BA
:1023F400700000000100000100000000801A0600C7
:102404000000000058000020000000000000000050
:1024140000000000000000000000000000000000B8
:1024240000000000000000000000000000000000A8
:102434000000000000000000000000000000000098
:102444000000000000000000000000000000000088
:102454000000000000000000000000000000000078
:0C246400000000000000000032547698D8
:040000050800019559
:00000001FF
